:100000000C9436000C945E000C945E000C945E0020
:100010000C945E000C945E000C945E000C945E00E8
:100020000C945E000C94770A0C945E000C945E00B5
:100030000C945E000C945E000C945E000C945E00C8
:100040000C945E000C945E000C945E000C945E00B8
:100050000C945E000C945E000C945E000C945E00A8
:100060000C945E000C945E00F90AFA0A11241FBE7B
:10007000CFEFD8E0DEBFCDBF11E0A0E0B1E0E6EF0A
:10008000F4E202C005900D92AA31B107D9F711E050
:10009000AAE1B1E001C01D92A838B107E1F710E074
:1000A000CAE6D0E004C02297FE010E943B11C83688
:1000B000D107C9F70E94AC000C946E120C9400009A
:1000C00080910B018F5F80930B010895CF93DF9395
:1000D00080ED97E00E94400BC0E0D1E00BC080E0D3
:1000E00060E00E948F08CE010E94530984E690E0F0
:1000F0000E94B10A80E10E94270A882381F380E1EF
:100100000E94740A88EE93E00E94B10ACCEEDFEF01
:10011000C832D10538F088E290E068ED7FEF0E94A8
:10012000240A06C088ED9FEF68E270E00E94240A6E
:1001300081E00E94080B84E190E00E94B10A2196C0
:10014000CC33D10529F780E090E060E070E00E94B8
:10015000240ADF91CF9108958F929F92AF92BF9220
:10016000CF92DF92EF92FF920F931F93CF93DF9383
:10017000CDB7DEB72A970FB6F894DEBF0FBECDBF5E
:100180000E94660000E011E00BC080E060E00E9489
:100190008F08C8010E94530984E690E00E94B10ACA
:1001A00080E10E94270A882381F380E10E94740A7B
:1001B000CE01019661E00E94FF0A88EC90E068ECB5
:1001C00070E00E94240A89859A8529813A81820FEC
:1001D000931F26E0843A92075CF780E090E060E0AD
:1001E00070E00E94240A80ED97E00E94B10A0F2E71
:1001F000F8ECAF2EBB24F02D0F2EF8E08F2EF1E09F
:100200009F2EF02DCE01019661E00E94FF0ABC01F5
:1002100089819A812B813C81820F931F2D813E81A0
:10022000820F931F2F813885820F931F29853A856E
:10023000820F931F23E188389207B1F480E090E0A9
:1002400060E070E00E94240A88EE93E00E94B10A08
:100250000F2EF8ECAF2EBB24F02D0F2EF8E08F2ED2
:10026000F1E09F2EF02D9EC0605D774084E0613B01
:100270007807BCF0882777FD8095982F0E9481062B
:100280002DEC3CEC4CE45CE30E940D0720E030E0F8
:100290004FE253E40E9482050E944E068B019C01AE
:1002A00049C02BEF60357207BCF4882777FD809535
:1002B000982F0E9481062DEC3CEC4CE45CE30E94FC
:1002C0000D0720E030E04FE253E40E9481050E94D8
:1002D0004E068B019C012EC0882777FD8095982FB4
:1002E0000E94810620E030E046E954E40E94E605E1
:1002F000E62EC72EF82ED92E862F9C2DAF2DBD2D84
:10030000BC01CD0120E030E04EE353E40E940D0734
:100310000E2D1C2D2F2D3D2DA90198010E940D079A
:100320002F2D3D2DA90198010E940D070E944E0618
:100330008B019C01101611062CF46501C01AD10A1C
:1003400075010DC011234CF40F2EF8ECEF2EFF2495
:10035000F02DE00EF11E650102C0650175010E94DD
:10036000BF08B701882777FD8095982F0E94430921
:10037000C4010E945309B601882777FD8095982F04
:100380000E94430980E061E00E948F08B80188273D
:1003900077FD8095982F0E944309C701B6010E94FE
:1003A000240A30CFCE01019661E00E94FF0ABC0111
:1003B00089859A8529813A81820F931F27E0803DA4
:1003C0009207B4F488EC90E068EC70E00E94240A94
:1003D00084E190E00E94B10A0F2EF8ECAF2EBB240E
:1003E000F02D0F2EF8E08F2EF1E09F2EF02D9EC005
:1003F000605D774084E0613B7807BCF0882777FD3B
:100400008095982F0E9481062DEC3CEC4CE45CE337
:100410000E940D0720E030E04FE253E40E94820585
:100420000E944E068B019C0149C02BEF603572077C
:10043000BCF4882777FD8095982F0E9481062DECCB
:100440003CEC4CE45CE30E940D0720E030E04FE21E
:1004500053E40E9481050E944E068B019C012EC030
:10046000882777FD8095982F0E94810620E030E054
:1004700046E954E40E94E605E62EC72EF82ED92E52
:10048000862F9C2DAF2DBD2DBC01CD0120E030E08D
:100490004EE353E40E940D070E2D1C2D2F2D3D2DF4
:1004A000A90198010E940D072F2D3D2DA90198014A
:1004B0000E940D070E944E068B019C01101611062A
:1004C0002CF46501C01AD10A75010DC011234CF43A
:1004D0000F2EF8ECEF2EFF24F02DE00EF11E65013B
:1004E00002C0650175010E94BF08B701882777FD2A
:1004F0008095982F0E944309C4010E945309B601B8
:10050000882777FD8095982F0E94430980E061E05D
:100510000E948F08B801882777FD8095982F0E9448
:100520004309C701B6010E94240A3CCFCE010196BF
:1005300061E00E94FF0ABC0189859A8529813A8180
:10054000820F931F27E0803D920759F480E090E0EE
:1005500060E070E00E94240A88EE93E00E94B10AF5
:100560009EC0605D774084E0613B7807BCF08827DF
:1005700077FD8095982F0E9481062DEC3CEC4CE491
:100580005CE30E940D0720E030E04FE253E40E945C
:1005900082050E944E068B019C0149C02BEF6035FD
:1005A0007207BCF4882777FD8095982F0E948106FA
:1005B0002DEC3CEC4CE45CE30E940D0720E030E0C5
:1005C0004FE253E40E9481050E944E068B019C017C
:1005D0002EC0882777FD8095982F0E94810620E005
:1005E00030E046E954E40E94E605E62EC72EF82ED8
:1005F000D92E862F9C2DAF2DBD2DBC01CD0120E025
:1006000030E04EE353E40E940D070E2D1C2D2F2DDC
:100610003D2DA90198010E940D072F2D3D2DA90107
:1006200098010E940D070E944E068B019C01101636
:1006300011062CF46501C01AD10A75010DC01123F1
:100640004CF40F2EF8ECEF2EFF24F02DE00EF11EEF
:10065000650102C0650175010E94BF08B7018827C6
:1006600077FD8095982F0E944309C4010E94530989
:10067000B601882777FD8095982F0E94430980E076
:1006800061E00E948F08B801882777FD8095982F38
:100690000E944309C701B6010E94240A47CFCE0138
:1006A000019661E00E94FF0A88EC90E060E070E053
:1006B0000E94240A89819A8123E0883E920778F774
:1006C00080E090E060E070E00E94240A88EE93E011
:1006D0000E94B10ACE01019661E00E94FF0A8C01DE
:1006E00088EC90E060E070E00E94240A87E0003D22
:1006F000180780F780E090E060E070E00E94240A34
:1007000088EE93E00E94B10A0F2EF8ECAF2EBB24C6
:10071000F02D0F2EF8E08F2EF1E09F2EF02DCE0160
:10072000019661E00E94FF0ABC018B819C812981B6
:100730003A81820F931F2D813E81820F931F29E002
:10074000843C92075CF080E090E060E070E00E9402
:10075000240A88EE93E00E94B10A9EC0605D774053
:1007600084E0613B7807BCF0882777FD8095982F5F
:100770000E9481062DEC3CEC4CE45CE30E940D07EA
:1007800020E030E04FE253E40E9482050E944E06D2
:100790008B019C0149C02BEF60357207BCF48827A0
:1007A00077FD8095982F0E9481062DEC3CEC4CE45F
:1007B0005CE30E940D0720E030E04FE253E40E942A
:1007C00081050E944E068B019C012EC0882777FD73
:1007D0008095982F0E94810620E030E046E954E49D
:1007E0000E94E605E62EC72EF82ED92E862F9C2DC8
:1007F000AF2DBD2DBC01CD0120E030E04EE353E430
:100800000E940D070E2D1C2D2F2D3D2DA9019801A5
:100810000E940D072F2D3D2DA90198010E940D0763
:100820000E944E068B019C01101611062CF46501E6
:10083000C01AD10A75010DC011234CF40F2EF8EC2B
:10084000EF2EFF24F02DE00EF11E650102C06501C0
:1008500075010E94BF08B701882777FD8095982F02
:100860000E944309C4010E945309B601882777FDFD
:100870008095982F0E94430980E061E00E948F08D4
:10088000B801882777FD8095982F0E944309C701FA
:10089000B6010E94240A43CFCE01019661E00E9476
:1008A000FF0A80E090E068EC70E00E94240A8B81EF
:1008B0009C8129813A81820F931F23E0883E920711
:1008C00058F780E090E060E070E00E94240A88EE33
:1008D00093E00E94B10ACE01019661E00E94FF0AF6
:1008E00080E090E068EC70E00E94240A8D819E8197
:1008F00023E08438920778F380E090E060E070E0D5
:100900000E94240A88EE93E00E94B10A0F2EF8ECB0
:10091000AF2EBB24F02D0F2EF8E08F2EF1E09F2E8E
:10092000F02DCE01019661E00E94FF0ABC01898191
:100930009A812B813C81820F931F2D813E81820FF2
:10094000931F2F813885820F931F29853A85820F47
:10095000931F23E18838920759F480E090E060E02B
:1009600070E00E94240A88EE93E00E94B10A9EC0C3
:10097000605D774084E0613B7807BCF0882777FDB5
:100980008095982F0E9481062DEC3CEC4CE45CE3B2
:100990000E940D0720E030E04FE253E40E94820500
:1009A0000E944E068B019C0149C02BEF60357207F7
:1009B000BCF4882777FD8095982F0E9481062DEC46
:1009C0003CEC4CE45CE30E940D0720E030E04FE299
:1009D00053E40E9481050E944E068B019C012EC0AB
:1009E000882777FD8095982F0E94810620E030E0CF
:1009F00046E954E40E94E605E62EC72EF82ED92ECD
:100A0000862F9C2DAF2DBD2DBC01CD0120E030E007
:100A10004EE353E40E940D070E2D1C2D2F2D3D2D6E
:100A2000A90198010E940D072F2D3D2DA9019801C4
:100A30000E940D070E944E068B019C0110161106A4
:100A40002CF46501C01AD10A75010DC011234CF4B4
:100A50000F2EF8ECEF2EFF24F02DE00EF11E6501B5
:100A600002C0650175010E94BF08B701882777FDA4
:100A70008095982F0E944309C4010E945309B60132
:100A8000882777FD8095982F0E94430980E061E0D8
:100A90000E948F08B801882777FD8095982F0E94C3
:100AA0004309C701B6010E94240A3BCFCE0101963B
:100AB00061E00E94FF0A88EC90E068EC70E00E9420
:100AC000240A8D819E818436910580F780E090E034
:100AD00060E070E00E94240A80E090E02A960FB661
:100AE000F894DEBF0FBECDBFDF91CF911F910F9164
:100AF000FF90EF90DF90CF90BF90AF909F908F903E
:100B000008955058BB27AA270ED04DC13ED130F0D2
:100B100043D120F031F49F3F11F41EF433C10EF4A1
:100B2000E095E7FB29C1E92F4FD180F3BA1762079F
:100B300073078407950718F071F49EF567C10EF4EA
:100B4000E0950B2EBA2FA02D0B01B90190010C01DD
:100B5000CA01A0011124FF27591B99F0593F50F4F5
:100B6000503E68F11A16F040A22F232F342F44274D
:100B7000585FF3CF469537952795A795F040539545
:100B8000C9F77EF41F16BA0B620B730B840BBAF015
:100B90009150A1F0FF0FBB1F661F771F881FC2F780
:100BA0000EC0BA0F621F731F841F48F48795779594
:100BB0006795B795F7959E3F08F0B3CF9395880F4B
:100BC00008F09927EE0F9795879508950CD0EBC004
:100BD000E3D040F0DAD030F021F45F3F19F0CCC020
:100BE000511115C1CFC0F0D098F39923C9F3552303
:100BF000B1F3951B550BBB27AA2762177307840710
:100C000038F09F5F5F4F220F331F441FAA1FA9F3C5
:100C100033D00E2E3AF0E0E830D091505040E695B7
:100C2000001CCAF729D0FE2F27D0660F771F881F18
:100C3000BB1F261737074807AB07B0E809F0BB0B07
:100C4000802DBF01FF2793585F4F2AF09E3F51052B
:100C500068F092C0DCC05F3FECF3983EDCF3869511
:100C600077956795B795F7959F5FC9F7880F911DA1
:100C70009695879597F90895E1E0660F771F881F8D
:100C8000BB1F621773078407BA0720F0621B730B40
:100C9000840BBA0BEE1F88F7E095089504D0689492
:100CA000B111B5C0089598D088F09F5790F0B92F32
:100CB0009927B751A0F0D1F0660F771F881F991FB1
:100CC0001AF0BA95C9F712C0B13081F09FD0B1E0E7
:100CD00008959CC0672F782F8827B85F39F0B93FF7
:100CE000CCF3869577956795B395D9F73EF49095B3
:100CF0008095709561957F4F8F4F9F4F0895E89431
:100D000009C097FB3EF490958095709561957F4F53
:100D10008F4F9F4F9923A9F0F92F96E9BB27939501
:100D2000F695879577956795B795F111F8CFFAF411
:100D3000BB0F11F460FF1BC06F5F7F4F8F4F9F4F42
:100D400016C0882311F096E911C0772321F09EE8A0
:100D5000872F762F05C0662371F096E8862F70E006
:100D600060E02AF09A95660F771F881FDAF7880FE0
:100D70009695879597F9089597F99F6780E870E0B1
:100D800060E008959FEF80EC089500240A94161601
:100D9000170618060906089500240A941216130669
:100DA000140605060895092E0394000C11F48823F7
:100DB00052F0BB0F40F4BF2B11F460FF04C06F5F13
:100DC0007F4F8F4F9F4F089557FD9058440F551FE9
:100DD00059F05F3F71F04795880F97FB991F61F0BD
:100DE0009F3F79F087950895121613061406551F34
:100DF000F2CF4695F1DF08C0161617061806991FA0
:100E0000F1CF86957105610508940895E894BB2794
:100E100066277727CB0197F908950BD0C4CFB5DFAC
:100E200028F0BADF18F0952309F0A6CFABCF112434
:100E3000EECFCADFA0F3959FD1F3950F50E0551F79
:100E4000629FF001729FBB27F00DB11D639FAA271F
:100E5000F00DB11DAA1F649F6627B00DA11D661F6E
:100E6000829F2227B00DA11D621F739FB00DA11D8F
:100E7000621F839FA00D611D221F749F3327A00D49
:100E8000611D231F849F600D211D822F762F6A2FE5
:100E900011249F5750408AF0E1F088234AF0EE0F6A
:100EA000FF1FBB1F661F771F881F91505040A9F777
:100EB0009E3F510570F060CFAACF5F3FECF3983EA4
:100EC000DCF3869577956795B795F795E7959F5FDE
:100ED000C1F7FE2B880F911D9695879597F9089578
:100EE000EF92FF920F931F936AB157985A98289ADE
:100EF000E0901E01F0901F0100912001109121014E
:100F000020E030E041E050E0CA016F9364E06A9570
:100F1000F1F76F910197C9F75C9ACA016F9364E08A
:100F20006A95F1F76F910197C9F789B15C98FA0159
:100F30006F9364E06A95F1F76F913197C9F75C9A06
:100F4000FA016F9364E06A95F1F76F913197C9F7F1
:100F50005C9887FF0BC02C5F3F4FC901A0E0B0E059
:100F60008E159F05A007B10708F4CECF6AB91F916F
:100F70000F91FF90EF90089565B190E0AC01417042
:100F80005070440F551F9C012670307053E0220FA3
:100F9000331F5A95E1F7422B6D7C462B45B92BB197
:100FA0008870907034E0880F991F3A95E1F72F7799
:100FB000282B2BB95C9A81E090E0FC016F9364E0F0
:100FC0006A95F1F76F913197C9F75C986F9364E078
:100FD0006A95F1F76F910197C9F7089580E197E25B
:100FE000A0E0B0E080931E0190931F01A093200128
:100FF000B0932101529A209A549A8EE190E00E9477
:10100000B10A83E00E94560986E090E00E94B10A8E
:1010100083E00E94560982E090E00E94B10A83E0DA
:101020000E94560982E090E00E94B10A82E00E948C
:10103000560982E090E00E94B10A88E20E946B08A3
:1010400088E00E946B0881E00E946B0886E00E94A5
:101050006B088CE00E946B08089580912201882320
:1010600029F481E0809322010E94EE070895BF9247
:10107000CF92DF92EF92FF920F931F93082F162FBC
:10108000F42E0E942D080E947007B4B0C5B0DAB0EB
:10109000EBB02898112311F05A9A01C05A9884B1E4
:1010A000826384B9579A81E0F81629F0802F8295DF
:1010B0008F700E94BC07802F8F700E94BC07DAB827
:1010C000EBB8B4B8C5B81F910F91FF90EF90DF90C7
:1010D000CF90BF90089560E042E00E9437080895E5
:1010E000A4E0B0E0E6E7F8E00C941011182F062F0A
:1010F00080E8898380EC8A8384E98B8384ED8C8308
:10110000FE01E60FF11D8181810F0E946B08109393
:101110001D0100931C012496E4E00C942C110E9404
:101120007008089581E00E946B0880911A019091E7
:101130001B01892B19F160E070E208C0E0911A01EF
:10114000F0911B01E40FF51F70836F5F462F50E095
:1011500080910C0190E0019720910D0130E0FC019D
:10116000E29FC001E39F900DF29F900D112448175C
:10117000590724F310921D0110921C0108950E943A
:101180009208089561E042E00E94370808956F9246
:101190007F928F929F92AF92BF92CF92DF92FF92F7
:1011A0000F93DF93CF93CDB7DEB72A970FB6F8949E
:1011B000DEBF0FBECDBF5B016C010AE03E010894AB
:1011C000611C711CFA2CC601B5012AE030E040E038
:1011D00050E00E94C510C901DA015C016D010150A7
:1011E0004301800E911C80E3F80EC601B5012AE090
:1011F00030E040E050E00E949210F61AF401F082D4
:10120000A114B104C104D104E9F608C0F601E00F4D
:10121000F11D80810E94C2080F5F04C06E01089416
:10122000C11CD11C0A3090F32A960FB6F894DEBF89
:101230000FBECDBFCF91DF910F91FF90DF90CF9088
:10124000BF90AF909F908F907F906F900895EF9296
:10125000FF920F931F937B018C0197FF0BC010959A
:101260000095F094E094E11CF11C011D111D8DE22C
:101270000E94C208C801B7010E94C7081F910F91C0
:10128000FF90EF9008950E9427090895CF93DF9370
:10129000EC0103C021960E94C20888818823D1F7FF
:1012A000DF91CF9108950E944609089560E041E0E2
:1012B0000E9437080895282F883068F481E090E074
:1012C00002C0880F991F2A95E2F7282FAAE2B0E002
:1012D000EBE2F0E029C08E3080F430E0285030405E
:1012E00081E090E002C0880F991F2A95E2F7282F2D
:1012F000A4E2B0E0E5E2F0E017C0853130F020E094
:10130000A0E0B0E0E0E0F0E00FC030E02E50304070
:1013100081E090E002C0880F991F2A95E2F7282FFC
:10132000A7E2B0E0E8E2F0E06F3F19F480818227A5
:1013300009C0662319F08081822B04C09081822F1E
:101340008095892380838C91822B8C930895E0EB88
:10135000F0E083EF8083808184BDE1EBF0E082E008
:101360008083808185BDE4EBF0E010828081E3EB37
:10137000F0E08083808188BD88B587BD86E060E02D
:101380000E945B0985E060E00E945B098BE060E001
:101390000E945B0983E060E00E945B0908958091F0
:1013A0002301882329F481E0809323010E94A70967
:1013B0000895CF93DF93EC010E94CF09D7FD02C0BF
:1013C00020E004C0D095C195DF4F21E0CE01CF3F92
:1013D000D10519F014F08FEF90E0222319F018BC1A
:1013E00087BD02C088BD17BCDF91CF910895CF9310
:1013F000DF93EC010E94CF09D7FD02C020E004C0BA
:10140000D095C195DF4F21E0CE01CF3FD10519F036
:1014100014F08FEF90E0222329F01092B400809313
:10142000B30004C08093B4001092B300DF91CF9159
:1014300008950F931F938B010E94D909C8010E9440
:10144000F7091F910F9108950E94190A0895282FF6
:1014500080912401882391F481E08093240184B158
:101460008D7C84B985B1826385B985E090E06F9306
:1014700064E06A95F1F76F910197C9F783B18095A0
:10148000822308951F93CF93DF93182F8091240117
:10149000882391F481E08093240184B18D7C84B908
:1014A00085B1826385B985E090E06F9364E06A95C9
:1014B000F1F76F910197C9F7C12FD0E083B190E0A8
:1014C0008C239D23892BD1F38AE090E00E94B10AFE
:1014D00083B190E08C239D23892B81F383B18123F9
:1014E000DF91CF911F9108950E94420A08952F9293
:1014F0008F939F932FB68091320190913301019683
:10150000809332019093330190E080913401891FE0
:101510008093340190913A019C5F90933A018091BD
:10152000390180519742C0F090933A01809339017C
:101530008091350190913601019680933501909309
:10154000360190E080913701891F809337018091A7
:101550003801891F809338012FBE9F918F912F9062
:10156000189528EE33E009C0F9016F9364E06A959D
:10157000F1F76F913197C9F701970097A9F708958F
:10158000A0E7B0E08C918E7F8C93E0EBF0E080815F
:1015900083608083E1EBF0E08081807F80838081C5
:1015A00082608083B89A8C9181608C93789408953E
:1015B00080913B01882329F481E080933B010E94C4
:1015C000C00A08950E94D80AE0E7F0E080818E7F8B
:1015D00080831092350110923601109237011092DB
:1015E000380110923A011092390180818160808324
:1015F000089508958CE391E00E94500F08959C0196
:10160000462F8CE391E0B90120E00E94C30E0895BB
:10161000682F8CE391E00E94701008950F93DF9380
:10162000CF9300D000D00F92CDB7DEB79C01962F9C
:10163000DE011196EEE0F1E085E001900D9281501F
:10164000E1F7BE016F5F7F4F992329F08CE391E0B2
:1016500045E00FEF04C08CE391E045E003E10E9418
:10166000A90B8CE391E00E94910B0E94E20A0F907B
:101670000F900F900F900F90CF91DF910F910895E1
:1016800060E00E940E0B0895FC011182108213820B
:1016900012821582148217821682613118F080E15D
:1016A000808701C06087208B483060F481E090E043
:1016B00002C0880F991F4A95E2F74AE250E02BE2F8
:1016C00030E029C04E3080F4242F30E028503040E4
:1016D00081E090E002C0880F991F2A95E2F744E26A
:1016E00050E025E230E017C0453130F080E040E0C6
:1016F00050E020E030E00FC0242F30E02E5030408A
:1017000081E090E002C0880F991F2A95E2F747E236
:1017100050E028E230E0818733872287558744876D
:101720000895DC011C96ED91FC911D97309781F096
:10173000808119969C911997892B80831A96ED9137
:10174000FC911B97908119968C91809589238083B9
:101750000895A0E0B0E0EFEAFBE00C940A11EC0180
:101760005B01642F7901402F20E00E94440BCE01E1
:101770008F5B9F4FFC011082DE01AE5BBF4F1C925E
:10178000FE01ED5BFF4F1082FF86EE8640E061E0D8
:1017900070E06F017D018C014EC0F501E40FF11D79
:1017A0008081883050F49B0102C0220F331F8A953C
:1017B000E2F7922F29E230E01FC08E3060F490E013
:1017C0000897FB0102C0EE0FFF1F8A95E2F79E2FDC
:1017D00023E230E011C0853120F090E020E030E0DD
:1017E0000BC090E00E979B0102C0220F331F8A9519
:1017F000E2F7922F26E230E0E42FF0E0DE01AE0FB8
:10180000BF1F51969C93EE0FFF1FEC0FFD1F32A3DD
:1018100021A32332310511F4F80109C02632310524
:1018200011F4F70104C02932310521F4F601808159
:10183000982B90834F5F8885481708F4AECFCDB7BB
:10184000DEB7EAE00C942611A0E0B0E0EAE2FCE0AA
:101850000C940811EC015B01CF5BDF4F4991A9911A
:101860008880C354D04090E009C0E92FF0E0EE0F2B
:10187000FF1FEA0DFB1D118210829F5F888598175C
:10188000A0F384B1CF5BDF4F3991832B84B987B14B
:101890002991822B87B98AB19881C354D040892B72
:1018A0008AB985B1832B85B988B1822B88B98BB170
:1018B000892B8BB9EAE0F0E06F9364E06A95F1F769
:1018C0006F913197C9F784B13095832384B987B17B
:1018D0002095822387B98AB1909589238AB985B1E9
:1018E000382335B988B1282328B98BB198239BB9FF
:1018F0009090B000C090B1008091B0008360809360
:10190000B00082E08093B100D090B20060E070E05F
:101910003AC05091B2005D19650F711DE3B0E41635
:1019200009F04FC0F6B0FA1609F04BC089B188151E
:1019300009F047C025C0A42FB0E09D01220F331F3E
:101940008501020F131FF80180819181892BA1F479
:101950002C0F3D1FF90181A192A1FC01208130E0F3
:10196000AC0FBD1F51968C9190E028233923232B77
:1019700019F4F801718360834F5F88854817D8F2A6
:10198000D50E4E2DAF2D8E859F856817790708F2ED
:101990009092B000C092B10020E00FC0E22FF0E0C2
:1019A000EE0FFF1FEA0DFB1D80819181892B21F431
:1019B0008E859F85918380832F5F8885281770F39C
:1019C00005C0E3B0F6B089B040E0D7CFCDB7DEB701
:1019D000ECE00C942411A0E0B0E0E1EFFCE00C940A
:1019E0000C11EC018B01D0907C00E0907A00C7B024
:1019F000F8B080917A0086FDFCCF90E009C0E92F15
:101A0000F0E0EE0FFF1FE00FF11F118210829F5FC9
:101A100088859817A0F397B18AA18095982397B9E4
:101A200098B1892388B987E880937A0050E025C06F
:101A3000FE01E40FF11D8189806480937C00809118
:101A40007A00806480937A0080917A0086FDFCCFD2
:101A5000E42FF0E0EE0FFF1FE00FF11F2091780060
:101A60003091790080819181820F931F91838083CF
:101A70004F5F88854817E0F25F5F89A1581710F023
:101A800040E017C040E0F5CFE42FF0E0EE0FFF1F7D
:101A9000E00FF11F69A1862F90E095958795208131
:101AA0003181820F931F70E00E94B11071836083B7
:101AB0004F5F8885481740F3D0927C00E0927A000F
:101AC000F8B8C7B8CDB7DEB7E8E00C942811A0E2AB
:101AD000B0E0EDE6FDE00C940B118C017B01D42EFF
:101AE000842F81508230B0F4D8011C96ED91FC9186
:101AF0001D97309779F0808119969C911997892BC1
:101B000080831A96ED91FC911B97808119969C9188
:101B1000892B8083F8018089882349F5C02EB12E56
:101B2000C801B7010E94240CD8011C96ED91FC91CC
:101B30001D97309781F0808119969C911997892B78
:101B400080831A96ED91FC911B97908119968C9148
:101B5000809589238083B2E0DB1609F053C08C2D79
:101B60009B2DBE016F5F7F4F0E94240C27C0C02EAB
:101B7000B12EC801B7010E94EB0CD8011C96ED9163
:101B8000FC911D97309781F0808119969C9119974F
:101B9000892B80831A96ED91FC911B979081199661
:101BA0008C91809589238083B2E0DB1659F58C2DCA
:101BB0009B2DBE016F5F7F4F0E94EB0C40E0BE018A
:101BC0006F5F7F4F1AC0E42FF0E0EE0FFF1F670139
:101BD000CE0EDF1EE60FF71FD8011E962D913C9109
:101BE0001F9780819181281B390BF601808191819B
:101BF000820F931F918380834F5FD80118968C9139
:101C0000481708F3A096E9E00C942711A0E0B0E093
:101C1000ECE0FEE00C940911EC01162F072F942E36
:101C200022E0421711F0442351F48C819D81892BCD
:101C300009F4A4C08E819F81892B09F49FC0892D4E
:101C40008150823050F488819981892B09F496C0A3
:101C50008A819B81892B09F491C0CE01612F702F5D
:101C6000492D0E94670D812F902F9C015901CC2492
:101C7000DD2400E010E07CC081E0981669F4EA8180
:101C8000FB81E00FF11F20813181E881F981E00FB4
:101C9000F11F408151813DC0AC81BD81992059F433
:101CA000EE81FF81E00FF11F20813181A00FB11F74
:101CB0004D915C912EC0A00FB11F8D919C91E88138
:101CC000F981E00FF11F20813181EE85FF858217B8
:101CD000930710F4AF0105C0A9014E0F5F1F481B09
:101CE000590BEE81FF81E00FF11F60817181EA8164
:101CF000FB81E00FF11F80819181EE85FF856817E0
:101D0000790710F49F0105C09C012E0F3F1F261B71
:101D1000370B7901E41AF50A01F1F501608171814F
:101D200080E090E09A0140E050E0621B730B840B6E
:101D3000950B28EE33E040E050E00E9492109701AE
:101D400040E050E00E94E710C901F3E0293E3F0760
:101D500014F088EE93E097FF02C080E090E0F50178
:101D6000819391935F010894C11CD11C0E5F1F4F9A
:101D7000888590E0C816D9060CF47ECFCDB7DEB7C3
:101D8000EBE00C942511A4E0B0E0E9ECFEE00C944B
:101D900002118C01F62EE72E2A830E94060ED8012E
:101DA0001896BC91B9832F2D3E2DC9018C01552465
:101DB00044246624772443011C821B82AA24BB246A
:101DC0006501B8EE2B2EB3E03B2E32C0F801E08067
:101DD000F180FA81FF2321F0C1018E199F097C0156
:101DE00099ECE916F10414F044244394A3E3EA16B1
:101DF000F1049CF0B701882777FD8095982FA60104
:101E000095010E949210660E771E881E991EEB8126
:101E1000FC81EE0DFF1DFC83EB83539488EE93E071
:101E2000A0E0B0E0A80EB91ECA1EDB1E0E5F1F4F59
:101E30009981591658F2442009F5492F50E0415034
:101E4000504084EF91E0489F9001499F300D589F8A
:101E5000300D1124809180019091810182179307A8
:101E60001CF420E030E017C088EE93E0489F90011A
:101E7000499F300D589F300D11240DC0AB81BC819E
:101E80009D0140E050E0C401B3010E94C5102093C1
:101E9000800130938101C9012496E2E10C941E1166
:101EA000CF93DF93EC018A819B81009711F00E9410
:101EB000D5118E819F81009711F00E94D5118881E4
:101EC0009981009711F00E94D5118C819D81009716
:101ED00011F00E94D511DF91CF910895A3E6B0E0F3
:101EE000E4E7FFE00C9402117C015B016A01A29619
:101EF0002FAFA297DA018D919C91892B11F5F701F3
:101F0000808590E0880F991F0E943F11D6018D9324
:101F10009C93009709F4DFC020E030E00CC0C901B9
:101F2000880F991FD601ED91FC91E80FF91F1182DE
:101F300010822F5F3F4FF701808590E02817390707
:101F400074F3D5018D919C91892B89F000E010E00C
:101F50003E010894611C711C41E4242E312C2C0E8E
:101F60003D1E31E2432E512C4C0E5D1E28C0F70160
:101F7000808590E0880F991F0E943F11D5018D93B5
:101F80009C93009709F4A7C020E030E011C0C9017C
:101F9000880F991FD501ED91FC91E80FF91FD7012A
:101FA0001E968D919C911F97918380832F5F3F4F49
:101FB000F701808590E0281739074CF3C7CFC70198
:101FC000B301A2964FADA2970E94670DD701189654
:101FD0008C91882E9924A101F301A4965FAE4EAE98
:101FE000A49760E070E034C00115110559F0A49683
:101FF000AEADBFADA4972D913C9180819181281702
:10200000390758F480819181A496AEADBFADA497F5
:102010008D939C930115110541F0DA012D913C91AE
:10202000808191818217930728F480819181DA0160
:102030008D939C936F5F7F4F4E5F5F4F3296A49658
:102040008EAD9FADA4970296A4969FAF8EAFA49736
:10205000681579054CF20F5F1F4F0A30110509F022
:10206000AECF40E050E020E030E08E010F5B1F4F2C
:10207000BE016F5D7F4F28C0F801E20FF31F808023
:102080009180F601A081B181A20FB31F8D919C9127
:1020900011978815990510F48D929C92FB01E20F1F
:1020A000F31F80809180F501A081B181A20FB31F41
:1020B0008D919C9111978816990610F48D929C929F
:1020C0004F5F5F4F2E5F3F4FD70118968C9190E086
:1020D000481759078CF2CD59DF4FE2E10C941E11DD
:1020E0001F93CF93DF93EC01162F862F8150823000
:1020F00040F4AE014E5F5F4FCE01BE0121E00E9471
:102100006E0F123011F0112349F4AE014A5F5F4F98
:10211000CE012496BE0120E00E946E0FDF91CF9188
:102120001F910895629FD001739FF001829FE00D7F
:10213000F11D649FE00DF11D929FF00D839FF00D46
:10214000749FF00D659FF00D9927729FB00DE11DF2
:10215000F91F639FB00DE11DF91FBD01CF011124CF
:102160000895AA1BBB1B51E107C0AA1FBB1FA617DE
:10217000B70710F0A61BB70B881F991F5A95A9F730
:1021800080959095BC01CD010895A1E21A2EAA1B5D
:10219000BB1BFD010DC0AA1FBB1FEE1FFF1FA21717
:1021A000B307E407F50720F0A21BB30BE40BF50B14
:1021B000661F771F881F991F1A9469F7609570959D
:1021C000809590959B01AC01BD01CF01089597FBCF
:1021D000092E05260ED057FD04D0D7DF0AD0001CEB
:1021E00038F450954095309521953F4F4F4F5F4FB4
:1021F0000895F6F790958095709561957F4F8F4F74
:102200009F4F08952F923F924F925F926F927F92CD
:102210008F929F92AF92BF92CF92DF92EF92FF92F6
:102220000F931F93CF93DF93CDB7DEB7CA1BDB0BA2
:102230000FB6F894DEBF0FBECDBF09942A88398847
:1022400048885F846E847D848C849B84AA84B9844E
:10225000C884DF80EE80FD800C811B81AA81B9815A
:10226000CE0FD11D0FB6F894DEBF0FBECDBFED016E
:102270000895EE0FFF1F0590F491E02D0994CF9380
:10228000DF93AC018230910510F442E050E0E09120
:102290008601F091870120E030E0A0E0B0E024C0AA
:1022A0008081918184179507D0F08417950771F488
:1022B00082819381109729F013969C938E931297A5
:1022C0002CC0909387018093860127C0211531058A
:1022D00019F08217930718F49C01BD01EF01928158
:1022E0008381DF01E92FF82F3097D1F621153105D1
:1022F000F9F0C901841B950B8430910580F48A8123
:102300009B816115710521F0FB019383828304C0D9
:102310009093870180938601FE01329642C0FE01B0
:10232000E80FF91F4193519302979983888339C02D
:102330008091840190918501009741F4809115016D
:10234000909116019093850180938401209113014F
:10235000309114012115310541F42DB73EB780911C
:10236000170190911801281B390BE0918401F0911D
:102370008501E217F30798F42E1B3F0B241735074E
:1023800070F0CA0102962817390748F08E0F9F1F78
:1023900090938501809384014193519302C0E0E0C2
:1023A000F0E0CF01DF91CF9108950F931F93CF936A
:1023B000DF939C01009709F48CC0DC0112971396FF
:1023C0001C921E921297609186017091870161158F
:1023D000710589F48D919C911197820F931F209123
:1023E0008401309185012817390769F5B09385017B
:1023F000A09384016EC0FB0140E050E001C0FC01ED
:10240000EA17FB0730F482819381AF010097B9F797
:102410001FC0E9012297FB83EA8308811981C90162
:10242000800F911F8E179F0759F480819181800F33
:10243000911F029699838883828193819B838A83EB
:102440004115510529F4B0938701A093860141C03D
:10245000FA01B383A283C191D191EC0FFD1FAE1796
:10246000BF0781F4F901929182918C0F9D1F029612
:10247000DA0111969C938E938281938113969C939B
:102480008E931297E0E0F0E002C0FB01BC01DB019B
:1024900012968D919C9113970097B9F7CB010296F4
:1024A0002D913C911197820F931F209184013091BF
:1024B00085012817390769F4309729F410928701AC
:1024C0001092860102C0138212827093850160937C
:1024D0008401DF91CF911F910F91089510E0CAE61A
:1024E000D0E004C0FE010E943B112296CC36D107F9
:0624F000C9F7F894FFCFCC
:1024F60050726573732042002020000102080E0FFF
:0A25060010111200008801200000EF
:00000001FF
